{
  "_format": "hh-sol-artifact-1",
  "contractName": "L1EthRemoteCore",
  "sourceName": "contracts/ethereum/L1EthRemoteCore.sol",
  "abi": [
    {
      "inputs": [
        {
          "internalType": "contract IStarknetCore",
          "name": "_starknetCore",
          "type": "address"
        }
      ],
      "stateMutability": "nonpayable",
      "type": "constructor"
    },
    {
      "inputs": [],
      "name": "ETH_GOERLI_CHAIN_ID",
      "outputs": [
        {
          "internalType": "uint32",
          "name": "",
          "type": "uint32"
        }
      ],
      "stateMutability": "view",
      "type": "function"
    },
    {
      "inputs": [],
      "name": "REMOTE_DEPOSIT_SELECTOR",
      "outputs": [
        {
          "internalType": "uint256",
          "name": "",
          "type": "uint256"
        }
      ],
      "stateMutability": "view",
      "type": "function"
    },
    {
      "inputs": [],
      "name": "REMOTE_WITHDRAW_SELECTOR",
      "outputs": [
        {
          "internalType": "uint256",
          "name": "",
          "type": "uint256"
        }
      ],
      "stateMutability": "view",
      "type": "function"
    },
    {
      "inputs": [
        {
          "internalType": "uint256",
          "name": "tokenAddress",
          "type": "uint256"
        },
        {
          "internalType": "uint256",
          "name": "amount",
          "type": "uint256"
        },
        {
          "internalType": "uint256",
          "name": "userAddress",
          "type": "uint256"
        },
        {
          "internalType": "uint256",
          "name": "nonce",
          "type": "uint256"
        }
      ],
      "name": "confirmRemoteWithdraw",
      "outputs": [],
      "stateMutability": "nonpayable",
      "type": "function"
    },
    {
      "inputs": [
        {
          "internalType": "address",
          "name": "",
          "type": "address"
        }
      ],
      "name": "ethToStarknetERC20Addresses",
      "outputs": [
        {
          "internalType": "uint256",
          "name": "",
          "type": "uint256"
        }
      ],
      "stateMutability": "view",
      "type": "function"
    },
    {
      "inputs": [],
      "name": "l2EthRemoteCoreAddress",
      "outputs": [
        {
          "internalType": "uint256",
          "name": "",
          "type": "uint256"
        }
      ],
      "stateMutability": "view",
      "type": "function"
    },
    {
      "inputs": [],
      "name": "nonce",
      "outputs": [
        {
          "internalType": "uint256",
          "name": "",
          "type": "uint256"
        }
      ],
      "stateMutability": "view",
      "type": "function"
    },
    {
      "inputs": [
        {
          "internalType": "bytes32",
          "name": "",
          "type": "bytes32"
        }
      ],
      "name": "nullifiers",
      "outputs": [
        {
          "internalType": "bool",
          "name": "",
          "type": "bool"
        }
      ],
      "stateMutability": "view",
      "type": "function"
    },
    {
      "inputs": [],
      "name": "owner",
      "outputs": [
        {
          "internalType": "address",
          "name": "",
          "type": "address"
        }
      ],
      "stateMutability": "view",
      "type": "function"
    },
    {
      "inputs": [],
      "name": "remoteAddressIsSet",
      "outputs": [
        {
          "internalType": "bool",
          "name": "",
          "type": "bool"
        }
      ],
      "stateMutability": "view",
      "type": "function"
    },
    {
      "inputs": [
        {
          "internalType": "address",
          "name": "tokenAddress",
          "type": "address"
        },
        {
          "internalType": "uint256",
          "name": "amount",
          "type": "uint256"
        }
      ],
      "name": "remoteDepositAccount",
      "outputs": [],
      "stateMutability": "payable",
      "type": "function"
    },
    {
      "inputs": [
        {
          "internalType": "uint256",
          "name": "tokenAddress",
          "type": "uint256"
        },
        {
          "internalType": "uint256",
          "name": "amount",
          "type": "uint256"
        }
      ],
      "name": "requestRemoteWithdraw",
      "outputs": [],
      "stateMutability": "nonpayable",
      "type": "function"
    },
    {
      "inputs": [
        {
          "internalType": "uint256",
          "name": "_l2EthRemoteCoreAddress",
          "type": "uint256"
        }
      ],
      "name": "setRemoteAddress",
      "outputs": [],
      "stateMutability": "nonpayable",
      "type": "function"
    },
    {
      "inputs": [],
      "name": "starknetCore",
      "outputs": [
        {
          "internalType": "contract IStarknetCore",
          "name": "",
          "type": "address"
        }
      ],
      "stateMutability": "view",
      "type": "function"
    },
    {
      "inputs": [
        {
          "internalType": "uint256",
          "name": "",
          "type": "uint256"
        }
      ],
      "name": "starknetToEthERC20Addresses",
      "outputs": [
        {
          "internalType": "address",
          "name": "",
          "type": "address"
        }
      ],
      "stateMutability": "view",
      "type": "function"
    },
    {
      "inputs": [
        {
          "internalType": "address",
          "name": "ethERC20Address",
          "type": "address"
        },
        {
          "internalType": "uint256",
          "name": "starknetERC20Address",
          "type": "uint256"
        }
      ],
      "name": "updateEthToStarknetERC20Addresses",
      "outputs": [],
      "stateMutability": "nonpayable",
      "type": "function"
    },
    {
      "inputs": [
        {
          "internalType": "address",
          "name": "ethERC20Address",
          "type": "address"
        },
        {
          "internalType": "uint256",
          "name": "starknetERC20Address",
          "type": "uint256"
        }
      ],
      "name": "updateStarknetToEthERC20Addresses",
      "outputs": [],
      "stateMutability": "nonpayable",
      "type": "function"
    }
  ],
  "bytecode": "0x60806040526000805460ff60a01b191690557f03f87abff8951e08e284c8851ff72264be4224dc5a757bb87bd8b57466e306d96003557f02183497c0f34cf60b120886b7a034eb87ddcfb75696ff41bc2fd75ab2d710786004556005805463ffffffff1916600117905534801561007557600080fd5b50604051610e71380380610e71833981016040819052610094916100c5565b600980546001600160a01b039092166001600160a01b031992831617905560008054909116331781556002556100f5565b6000602082840312156100d757600080fd5b81516001600160a01b03811681146100ee57600080fd5b9392505050565b610d6d806101046000396000f3fe6080604052600436106100fe5760003560e01c806393d407bb11610095578063affed0e011610064578063affed0e0146102e7578063b0b307ee146102fd578063c4a37dce1461031e578063e458522414610331578063ea60ffe41461035157600080fd5b806393d407bb1461025b5780639b97ba4a1461027b578063a0fff3801461029b578063adf92dbc146102d157600080fd5b8063595f9d6b116100d1578063595f9d6b146101d657806369d2c84b146101f85780636b968add1461020e5780638da5cb5b1461023b57600080fd5b806317332409146101035780632997e86b1461013a57806339e730ab1461017a57806349639e49146101b2575b600080fd5b34801561010f57600080fd5b506005546101209063ffffffff1681565b60405163ffffffff90911681526020015b60405180910390f35b34801561014657600080fd5b5061016a610155366004610ae7565b60066020526000908152604090205460ff1681565b6040519015158152602001610131565b34801561018657600080fd5b5060095461019a906001600160a01b031681565b6040516001600160a01b039091168152602001610131565b3480156101be57600080fd5b506101c860045481565b604051908152602001610131565b3480156101e257600080fd5b506101f66101f1366004610b00565b610371565b005b34801561020457600080fd5b506101c860035481565b34801561021a57600080fd5b506101c8610229366004610b3e565b60076020526000908152604090205481565b34801561024757600080fd5b5060005461019a906001600160a01b031681565b34801561026757600080fd5b506101f6610276366004610b60565b61052a565b34801561028757600080fd5b506101f6610296366004610b60565b610570565b3480156102a757600080fd5b5061019a6102b6366004610ae7565b6008602052600090815260409020546001600160a01b031681565b3480156102dd57600080fd5b506101c860015481565b3480156102f357600080fd5b506101c860025481565b34801561030957600080fd5b5060005461016a90600160a01b900460ff1681565b6101f661032c366004610b60565b6105c8565b34801561033d57600080fd5b506101f661034c366004610ae7565b61080f565b34801561035d57600080fd5b506101f661036c366004610b8a565b610851565b600054600160a01b900460ff166103a35760405162461bcd60e51b815260040161039a90610bbc565b60405180910390fd5b60408051600480825260a0820190925260009160208201608080368337019050509050336001600160a01b0316816000815181106103e3576103e3610bdf565b602002602001018181525050826001600160a01b03168160018151811061040c5761040c610bdf565b602002602001018181525050818160028151811061042c5761042c610bdf565b6020026020010181815250506002548160038151811061044e5761044e610bdf565b6020908102919091010152600554815163ffffffff909116908290600490811061047a5761047a610bdf565b60209081029190910101526002805490600061049583610bf5565b909155505060095460015460048054604051633e3aa6c560e01b81526001600160a01b0390941693633e3aa6c5936104d293909291879101610c59565b602060405180830381600087803b1580156104ec57600080fd5b505af1158015610500573d6000803e3d6000fd5b505050506040513d601f19601f820116820180604052508101906105249190610c81565b50505050565b6000546001600160a01b031633146105545760405162461bcd60e51b815260040161039a90610c9a565b6001600160a01b03909116600090815260076020526040902055565b6000546001600160a01b0316331461059a5760405162461bcd60e51b815260040161039a90610c9a565b600090815260086020526040902080546001600160a01b0319166001600160a01b0392909216919091179055565b600054600160a01b900460ff166105f15760405162461bcd60e51b815260040161039a90610bbc565b60405163a9059cbb60e01b8152306004820152602481018290526001600160a01b0383169063a9059cbb90604401602060405180830381600087803b15801561063957600080fd5b505af115801561064d573d6000803e3d6000fd5b505050506040513d601f19601f820116820180604052508101906106719190610cbe565b5060408051600580825260c082019092526000916020820160a080368337019050509050336001600160a01b0316816000815181106106b2576106b2610bdf565b60200260200101818152505060076000846001600160a01b03166001600160a01b0316815260200190815260200160002054816001815181106106f7576106f7610bdf565b602002602001018181525050818160028151811061071757610717610bdf565b6020026020010181815250506002548160038151811061073957610739610bdf565b6020908102919091010152600554815163ffffffff909116908290600490811061076557610765610bdf565b60209081029190910101526002805490600061078083610bf5565b9091555050600954600154600354604051633e3aa6c560e01b81526001600160a01b0390931692633e3aa6c59234926107bd928790600401610c59565b6020604051808303818588803b1580156107d657600080fd5b505af11580156107ea573d6000803e3d6000fd5b50505050506040513d601f19601f820116820180604052508101906105249190610c81565b6000546001600160a01b031633146108395760405162461bcd60e51b815260040161039a90610c9a565b6001556000805460ff60a01b1916600160a01b179055565b600054600160a01b900460ff1661087a5760405162461bcd60e51b815260040161039a90610bbc565b60408051600480825260a082019092526000916020820160808036833701905050905082816000815181106108b1576108b1610bdf565b60200260200101818152505084816001815181106108d1576108d1610bdf565b60200260200101818152505083816002815181106108f1576108f1610bdf565b602002602001018181525050818160038151811061091157610911610bdf565b6020908102919091010152600554815163ffffffff909116908290600490811061093d5761093d610bdf565b602090810291909101015260095460015460405162b2775760e61b81526001600160a01b0390921691632c9dd5c09161097a918590600401610ce0565b600060405180830381600087803b15801561099457600080fd5b505af11580156109a8573d6000803e3d6000fd5b50505060008681526008602090815260408083205490518794506001600160a01b0390911692916109db91869101610d01565b60408051601f1981840301815291815281516020928301206000818152600690935291205490915060ff1615610a425760405162461bcd60e51b815260206004820152600c60248201526b111bdd589b19481cdc195b9960a21b604482015260640161039a565b60405163a9059cbb60e01b81526001600160a01b0384811660048301526024820189905283169063a9059cbb90604401602060405180830381600087803b158015610a8c57600080fd5b505af1158015610aa0573d6000803e3d6000fd5b505050506040513d601f19601f82011682018060405250810190610ac49190610cbe565b506000908152600660205260409020805460ff1916600117905550505050505050565b600060208284031215610af957600080fd5b5035919050565b60008060408385031215610b1357600080fd5b50508035926020909101359150565b80356001600160a01b0381168114610b3957600080fd5b919050565b600060208284031215610b5057600080fd5b610b5982610b22565b9392505050565b60008060408385031215610b7357600080fd5b610b7c83610b22565b946020939093013593505050565b60008060008060808587031215610ba057600080fd5b5050823594602084013594506040840135936060013592509050565b602080825260099082015268273790383937bb32b960b91b604082015260600190565b634e487b7160e01b600052603260045260246000fd5b6000600019821415610c1757634e487b7160e01b600052601160045260246000fd5b5060010190565b600081518084526020808501945080840160005b83811015610c4e57815187529582019590820190600101610c32565b509495945050505050565b838152826020820152606060408201526000610c786060830184610c1e565b95945050505050565b600060208284031215610c9357600080fd5b5051919050565b6020808252600a908201526927b7363c9037bbb732b960b11b604082015260600190565b600060208284031215610cd057600080fd5b81518015158114610b5957600080fd5b828152604060208201526000610cf96040830184610c1e565b949350505050565b815160009082906020808601845b83811015610d2b57815185529382019390820190600101610d0f565b5092969550505050505056fea2646970667358221220f025e4168168289ab8d0073c39271c861bb210a485acab49460080f6294cc16064736f6c63430008090033",
  "linkReferences": {},
  "deployedLinkReferences": {}
}