{
    "_format": "hh-sol-artifact-1",
    "contractName": "L1EthRemoteCore",
    "sourceName": "contracts/ethereum/L1EthRemoteCore.sol",
    "abi": [
        {
            "inputs": [
                {
                    "internalType": "contract IStarknetCore",
                    "name": "_starknetCore",
                    "type": "address"
                }
            ],
            "stateMutability": "nonpayable",
            "type": "constructor"
        },
        {
            "inputs": [],
            "name": "ETH_GOERLI_CHAIN_ID",
            "outputs": [
                {
                    "internalType": "uint32",
                    "name": "",
                    "type": "uint32"
                }
            ],
            "stateMutability": "view",
            "type": "function"
        },
        {
            "inputs": [],
            "name": "REMOTE_DEPOSIT_SELECTOR",
            "outputs": [
                {
                    "internalType": "uint256",
                    "name": "",
                    "type": "uint256"
                }
            ],
            "stateMutability": "view",
            "type": "function"
        },
        {
            "inputs": [],
            "name": "REMOTE_WITHDRAW_SELECTOR",
            "outputs": [
                {
                    "internalType": "uint256",
                    "name": "",
                    "type": "uint256"
                }
            ],
            "stateMutability": "view",
            "type": "function"
        },
        {
            "inputs": [
                {
                    "internalType": "uint256",
                    "name": "tokenAddress",
                    "type": "uint256"
                },
                {
                    "internalType": "uint256",
                    "name": "amount",
                    "type": "uint256"
                }
            ],
            "name": "confirmRemoteWithdraw",
            "outputs": [],
            "stateMutability": "nonpayable",
            "type": "function"
        },
        {
            "inputs": [
                {
                    "internalType": "address",
                    "name": "",
                    "type": "address"
                }
            ],
            "name": "ethToStarknetERC20Addresses",
            "outputs": [
                {
                    "internalType": "uint256",
                    "name": "",
                    "type": "uint256"
                }
            ],
            "stateMutability": "view",
            "type": "function"
        },
        {
            "inputs": [],
            "name": "l2EthRemoteCoreAddress",
            "outputs": [
                {
                    "internalType": "uint256",
                    "name": "",
                    "type": "uint256"
                }
            ],
            "stateMutability": "view",
            "type": "function"
        },
        {
            "inputs": [
                {
                    "internalType": "bytes32",
                    "name": "",
                    "type": "bytes32"
                }
            ],
            "name": "nullifiers",
            "outputs": [
                {
                    "internalType": "bool",
                    "name": "",
                    "type": "bool"
                }
            ],
            "stateMutability": "view",
            "type": "function"
        },
        {
            "inputs": [],
            "name": "owner",
            "outputs": [
                {
                    "internalType": "address",
                    "name": "",
                    "type": "address"
                }
            ],
            "stateMutability": "view",
            "type": "function"
        },
        {
            "inputs": [],
            "name": "remoteAddressIsSet",
            "outputs": [
                {
                    "internalType": "bool",
                    "name": "",
                    "type": "bool"
                }
            ],
            "stateMutability": "view",
            "type": "function"
        },
        {
            "inputs": [
                {
                    "internalType": "address",
                    "name": "tokenAddress",
                    "type": "address"
                },
                {
                    "internalType": "uint256",
                    "name": "amount",
                    "type": "uint256"
                }
            ],
            "name": "remoteDepositAccount",
            "outputs": [],
            "stateMutability": "payable",
            "type": "function"
        },
        {
            "inputs": [
                {
                    "internalType": "uint256",
                    "name": "tokenAddress",
                    "type": "uint256"
                },
                {
                    "internalType": "uint256",
                    "name": "amount",
                    "type": "uint256"
                }
            ],
            "name": "requestRemoteWithdraw",
            "outputs": [],
            "stateMutability": "nonpayable",
            "type": "function"
        },
        {
            "inputs": [
                {
                    "internalType": "uint256",
                    "name": "_l2EthRemoteCoreAddress",
                    "type": "uint256"
                }
            ],
            "name": "setRemoteAddress",
            "outputs": [],
            "stateMutability": "nonpayable",
            "type": "function"
        },
        {
            "inputs": [],
            "name": "starknetCore",
            "outputs": [
                {
                    "internalType": "contract IStarknetCore",
                    "name": "",
                    "type": "address"
                }
            ],
            "stateMutability": "view",
            "type": "function"
        },
        {
            "inputs": [
                {
                    "internalType": "uint256",
                    "name": "",
                    "type": "uint256"
                }
            ],
            "name": "starknetToEthERC20Addresses",
            "outputs": [
                {
                    "internalType": "address",
                    "name": "",
                    "type": "address"
                }
            ],
            "stateMutability": "view",
            "type": "function"
        },
        {
            "inputs": [
                {
                    "internalType": "address",
                    "name": "ethERC20Address",
                    "type": "address"
                },
                {
                    "internalType": "uint256",
                    "name": "starknetERC20Address",
                    "type": "uint256"
                }
            ],
            "name": "updateEthToStarknetERC20Addresses",
            "outputs": [],
            "stateMutability": "nonpayable",
            "type": "function"
        },
        {
            "inputs": [
                {
                    "internalType": "address",
                    "name": "ethERC20Address",
                    "type": "address"
                },
                {
                    "internalType": "uint256",
                    "name": "starknetERC20Address",
                    "type": "uint256"
                }
            ],
            "name": "updateStarknetToEthERC20Addresses",
            "outputs": [],
            "stateMutability": "nonpayable",
            "type": "function"
        }
    ],
    "bytecode": "0x60806040526000805460ff60a01b191690557f03f87abff8951e08e284c8851ff72264be4224dc5a757bb87bd8b57466e306d96002557f02183497c0f34cf60b120886b7a034eb87ddcfb75696ff41bc2fd75ab2d710786003556004805463ffffffff1916600117905534801561007557600080fd5b50604051610d6b380380610d6b833981016040819052610094916100c2565b600880546001600160a01b039092166001600160a01b031992831617905560008054909116331790556100f2565b6000602082840312156100d457600080fd5b81516001600160a01b03811681146100eb57600080fd5b9392505050565b610c6a806101016000396000f3fe6080604052600436106100f35760003560e01c806393d407bb1161008a578063b0b307ee11610059578063b0b307ee146102dc578063c4a37dce146102fd578063e458522414610310578063fd1335691461033057600080fd5b806393d407bb146102505780639b97ba4a14610270578063a0fff38014610290578063adf92dbc146102c657600080fd5b8063595f9d6b116100c6578063595f9d6b146101cb57806369d2c84b146101ed5780636b968add146102035780638da5cb5b1461023057600080fd5b806317332409146100f85780632997e86b1461012f57806339e730ab1461016f57806349639e49146101a7575b600080fd5b34801561010457600080fd5b506004546101159063ffffffff1681565b60405163ffffffff90911681526020015b60405180910390f35b34801561013b57600080fd5b5061015f61014a366004610a3f565b60056020526000908152604090205460ff1681565b6040519015158152602001610126565b34801561017b57600080fd5b5060085461018f906001600160a01b031681565b6040516001600160a01b039091168152602001610126565b3480156101b357600080fd5b506101bd60035481565b604051908152602001610126565b3480156101d757600080fd5b506101eb6101e6366004610a58565b610350565b005b3480156101f957600080fd5b506101bd60025481565b34801561020f57600080fd5b506101bd61021e366004610a96565b60066020526000908152604090205481565b34801561023c57600080fd5b5060005461018f906001600160a01b031681565b34801561025c57600080fd5b506101eb61026b366004610ab8565b6104d2565b34801561027c57600080fd5b506101eb61028b366004610ab8565b610518565b34801561029c57600080fd5b5061018f6102ab366004610a3f565b6007602052600090815260409020546001600160a01b031681565b3480156102d257600080fd5b506101bd60015481565b3480156102e857600080fd5b5060005461015f90600160a01b900460ff1681565b6101eb61030b366004610ab8565b610570565b34801561031c57600080fd5b506101eb61032b366004610a3f565b610780565b34801561033c57600080fd5b506101eb61034b366004610a58565b6107c2565b600054600160a01b900460ff166103825760405162461bcd60e51b815260040161037990610ae2565b60405180910390fd5b60408051600480825260a0820190925260009160208201608080368337019050509050336001600160a01b0316816000815181106103c2576103c2610b05565b602002602001018181525050826001600160a01b0316816001815181106103eb576103eb610b05565b602002602001018181525050818160028151811061040b5761040b610b05565b6020908102919091010152600454815163ffffffff909116908290600390811061043757610437610b05565b6020908102919091010152600854600154600354604051633e3aa6c560e01b81526001600160a01b0390931692633e3aa6c59261047a9290918690600401610b56565b602060405180830381600087803b15801561049457600080fd5b505af11580156104a8573d6000803e3d6000fd5b505050506040513d601f19601f820116820180604052508101906104cc9190610b7e565b50505050565b6000546001600160a01b031633146104fc5760405162461bcd60e51b815260040161037990610b97565b6001600160a01b03909116600090815260066020526040902055565b6000546001600160a01b031633146105425760405162461bcd60e51b815260040161037990610b97565b600090815260076020526040902080546001600160a01b0319166001600160a01b0392909216919091179055565b600054600160a01b900460ff166105995760405162461bcd60e51b815260040161037990610ae2565b60405163a9059cbb60e01b8152306004820152602481018290526001600160a01b0383169063a9059cbb90604401602060405180830381600087803b1580156105e157600080fd5b505af11580156105f5573d6000803e3d6000fd5b505050506040513d601f19601f820116820180604052508101906106199190610bbb565b5060408051600480825260a0820190925260009160208201608080368337019050509050336001600160a01b03168160008151811061065a5761065a610b05565b60200260200101818152505060066000846001600160a01b03166001600160a01b03168152602001908152602001600020548160018151811061069f5761069f610b05565b60200260200101818152505081816002815181106106bf576106bf610b05565b6020908102919091010152600454815163ffffffff90911690829060039081106106eb576106eb610b05565b6020908102919091010152600854600154600254604051633e3aa6c560e01b81526001600160a01b0390931692633e3aa6c592349261072e928790600401610b56565b6020604051808303818588803b15801561074757600080fd5b505af115801561075b573d6000803e3d6000fd5b50505050506040513d601f19601f820116820180604052508101906104cc9190610b7e565b6000546001600160a01b031633146107aa5760405162461bcd60e51b815260040161037990610b97565b6001556000805460ff60a01b1916600160a01b179055565b600054600160a01b900460ff166107eb5760405162461bcd60e51b815260040161037990610ae2565b60408051600480825260a0820190925260009160208201608080368337019050509050336001600160a01b03168160008151811061082b5761082b610b05565b602002602001018181525050828160018151811061084b5761084b610b05565b602002602001018181525050818160028151811061086b5761086b610b05565b6020908102919091010152600454815163ffffffff909116908290600390811061089757610897610b05565b602090810291909101015260085460015460405162b2775760e61b81526001600160a01b0390921691632c9dd5c0916108d4918590600401610bdd565b600060405180830381600087803b1580156108ee57600080fd5b505af1158015610902573d6000803e3d6000fd5b50505060008481526007602090815260408083205490513394506001600160a01b03909116929161093591869101610bfe565b60408051601f1981840301815291815281516020928301206000818152600590935291205490915060ff161561099c5760405162461bcd60e51b815260206004820152600c60248201526b111bdd589b19481cdc195b9960a21b6044820152606401610379565b60405163a9059cbb60e01b81526001600160a01b0384811660048301526024820187905283169063a9059cbb90604401602060405180830381600087803b1580156109e657600080fd5b505af11580156109fa573d6000803e3d6000fd5b505050506040513d601f19601f82011682018060405250810190610a1e9190610bbb565b506000908152600560205260409020805460ff191660011790555050505050565b600060208284031215610a5157600080fd5b5035919050565b60008060408385031215610a6b57600080fd5b50508035926020909101359150565b80356001600160a01b0381168114610a9157600080fd5b919050565b600060208284031215610aa857600080fd5b610ab182610a7a565b9392505050565b60008060408385031215610acb57600080fd5b610ad483610a7a565b946020939093013593505050565b602080825260099082015268273790383937bb32b960b91b604082015260600190565b634e487b7160e01b600052603260045260246000fd5b600081518084526020808501945080840160005b83811015610b4b57815187529582019590820190600101610b2f565b509495945050505050565b838152826020820152606060408201526000610b756060830184610b1b565b95945050505050565b600060208284031215610b9057600080fd5b5051919050565b6020808252600a908201526927b7363c9037bbb732b960b11b604082015260600190565b600060208284031215610bcd57600080fd5b81518015158114610ab157600080fd5b828152604060208201526000610bf66040830184610b1b565b949350505050565b815160009082906020808601845b83811015610c2857815185529382019390820190600101610c0c565b5092969550505050505056fea26469706673582212204e4dbb9494c530b49459f82fd90062f7ab5ceb76324ed1b9eaf57012efc1b9a464736f6c63430008090033",
    "linkReferences": {},
    "deployedLinkReferences": {}
}